{
  "contractName": "MyContract",
  "abi": [
    {
      "anonymous": false,
      "inputs": [
        {
          "indexed": false,
          "internalType": "uint256",
          "name": "amount",
          "type": "uint256"
        }
      ],
      "name": "returnMsg",
      "type": "event"
    },
    {
      "inputs": [
        {
          "internalType": "address",
          "name": "",
          "type": "address"
        }
      ],
      "name": "balance_pool",
      "outputs": [
        {
          "internalType": "uint256",
          "name": "",
          "type": "uint256"
        }
      ],
      "stateMutability": "view",
      "type": "function",
      "constant": true
    },
    {
      "inputs": [
        {
          "internalType": "uint256",
          "name": "amount",
          "type": "uint256"
        }
      ],
      "name": "deposit",
      "outputs": [],
      "stateMutability": "nonpayable",
      "type": "function"
    },
    {
      "inputs": [
        {
          "internalType": "uint256",
          "name": "amount",
          "type": "uint256"
        }
      ],
      "name": "withdrawFounds",
      "outputs": [],
      "stateMutability": "nonpayable",
      "type": "function"
    },
    {
      "inputs": [],
      "name": "getMyBalance",
      "outputs": [
        {
          "internalType": "uint256",
          "name": "",
          "type": "uint256"
        }
      ],
      "stateMutability": "view",
      "type": "function",
      "constant": true
    }
  ],
  "bytecode": "0x608060405234801561001057600080fd5b5061063a806100206000396000f3fe608060405234801561001057600080fd5b506004361061004c5760003560e01c80634c7389091461005157806374a0a0e61461006f578063b6b55f251461009f578063ecb371c7146100bb575b600080fd5b6100596100d7565b6040516100669190610334565b60405180910390f35b610089600480360381019061008491906103b2565b61011d565b6040516100969190610334565b60405180910390f35b6100b960048036038101906100b4919061040b565b610135565b005b6100d560048036038101906100d0919061040b565b610207565b005b60008060003373ffffffffffffffffffffffffffffffffffffffff1673ffffffffffffffffffffffffffffffffffffffff16815260200190815260200160002054905090565b60006020528060005260406000206000915090505481565b60008111610178576040517f08c379a000000000000000000000000000000000000000000000000000000000815260040161016f906104bb565b60405180910390fd5b806000803373ffffffffffffffffffffffffffffffffffffffff1673ffffffffffffffffffffffffffffffffffffffff16815260200190815260200160002060008282546101c6919061050a565b925050819055507f5386eb56c60540c861a9e64b055cf8bf1095eeff6bf7f1fec87364750e492718816040516101fc9190610334565b60405180910390a150565b6000803373ffffffffffffffffffffffffffffffffffffffff1673ffffffffffffffffffffffffffffffffffffffff1681526020019081526020016000205481116102dd57806000803373ffffffffffffffffffffffffffffffffffffffff1673ffffffffffffffffffffffffffffffffffffffff168152602001908152602001600020600082825461029a919061053e565b925050819055507f5386eb56c60540c861a9e64b055cf8bf1095eeff6bf7f1fec87364750e492718816040516102d09190610334565b60405180910390a1610318565b6040517f08c379a000000000000000000000000000000000000000000000000000000000815260040161030f906105e4565b60405180910390fd5b50565b6000819050919050565b61032e8161031b565b82525050565b60006020820190506103496000830184610325565b92915050565b600080fd5b600073ffffffffffffffffffffffffffffffffffffffff82169050919050565b600061037f82610354565b9050919050565b61038f81610374565b811461039a57600080fd5b50565b6000813590506103ac81610386565b92915050565b6000602082840312156103c8576103c761034f565b5b60006103d68482850161039d565b91505092915050565b6103e88161031b565b81146103f357600080fd5b50565b600081359050610405816103df565b92915050565b6000602082840312156104215761042061034f565b5b600061042f848285016103f6565b91505092915050565b600082825260208201905092915050565b7f546865206465706f736974206d7573742062652067726561746572207468616e60008201527f20302e3030210000000000000000000000000000000000000000000000000000602082015250565b60006104a5602683610438565b91506104b082610449565b604082019050919050565b600060208201905081810360008301526104d481610498565b9050919050565b7f4e487b7100000000000000000000000000000000000000000000000000000000600052601160045260246000fd5b60006105158261031b565b91506105208361031b565b9250828201905080821115610538576105376104db565b5b92915050565b60006105498261031b565b91506105548361031b565b925082820390508181111561056c5761056b6104db565b5b92915050565b7f43616e2774207769746864726177206d6f7265207468616e2063757272656e7460008201527f2062616c616e6365210000000000000000000000000000000000000000000000602082015250565b60006105ce602983610438565b91506105d982610572565b604082019050919050565b600060208201905081810360008301526105fd816105c1565b905091905056fea2646970667358221220a6eafe21b3d9d79f5927fb8ccd15165d8cf31438706baca1559a63d8719abec164736f6c63430008110033",
  "immutableReferences": {},
  "source": "// SPDX-License-Identifier: MIT\r\npragma solidity ^0.8.4;\r\n\r\ncontract MyContract {\r\n   \r\n    //Map addresses to account balances\r\n    mapping (address => uint) public balance_pool;\r\n\r\n    //Create an event to be able to send information back to the client\r\n    event returnMsg(uint amount);\r\n\r\n    //Deposits founds to contract\r\n     function deposit(uint amount) public {\r\n        if(amount <= 0){\r\n             revert(\"The deposit must be greater than 0.00!\");\r\n        }else{\r\n            balance_pool[msg.sender] += amount;\r\n            emit returnMsg(amount);\r\n        }\r\n    }\r\n\r\n    // Withdraw\r\n    function withdrawFounds(uint amount) public {\r\n        if(amount <= balance_pool[msg.sender]){\r\n            balance_pool[msg.sender] -= amount;\r\n             emit returnMsg(amount);\r\n        }else{\r\n            revert(\"Can't withdraw more than current balance!\");\r\n        }\r\n   \r\n    }\r\n    //Returns the clients balance\r\n    function getMyBalance() public view returns (uint){\r\n        return balance_pool[msg.sender];\r\n    }\r\n}\r\n\r\n\r\n//Alternative error\r\n  /* require(\r\n            amount > 0,\r\n            \"The deposit must be greater than 0.00!\"\r\n );*/",
  "sourcePath": "C:\\Users\\Daniel\\Desktop\\MasterSemester3\\Blockchain\\A2\\contracts\\MyContract.sol",
  "compiler": {
    "name": "solc",
    "version": "0.8.17+commit.8df45f5f.Emscripten.clang"
  },
  "schemaVersion": "3.4.10",
  "updatedAt": "2022-11-01T15:38:45.091Z",
  "networkType": "ethereum",
  "devdoc": {
    "kind": "dev",
    "methods": {},
    "version": 1
  },
  "userdoc": {
    "kind": "user",
    "methods": {},
    "version": 1
  }
}